:020000021000EC
:10F00000000001206D550200955502009755020041
:10F01000995502009B5502009D550200000000001A
:10F020000000000000000000000000009F550200EA
:10F03000A155020000000000A3550200A5550200E2
:10F04000BD080200A755020065230200211D020031
:10F05000A7550200A75502003D0D0200A75502006A
:10F06000A7550200A7550200A7550200A7550200A8
:10F07000A7550200A7550200A7550200A755020098
:10F08000A755020011010200A7550200A755020072
:10F0900051010200A7550200595F0200A755020066
:10F0A000A7550200A7550200A7550200A755020068
:10F0B000A7550200A7550200000000000000000054
:10F0C000A7550200A7550200A7550200A755020048
:10F0D000A7550200A7550200A75502000000000036
:10F0E0000000000000000000000000000000000020
:10F0F0000000000000000000000000000000000010
:10F1000000000000000000000000000000000000FF
:10F1100000000000000000000000000000000000EF
:10F4000010B5054C237833B9044B13B10448AFF35E
:10F4100000800123237010BDA02100200000000007
:10F42000906002000C4B43B10C480D4910B5AFF38E
:10F4300000800C48036823B910BD0A48036833B93B
:10F440007047094B002BF7D0BDE810401847064B1A
:10F45000002BF5D0184700BF0000000090600200AC
:10F46000A42100209C21002000000000154B002B4F
:10F4700008BF134B9D46A3F5803A00218B460F46EB
:10F480001348144A121A00F063F80F4B002B00D0F7
:10F4900098470E4B002B00D0984700200021040015
:10F4A0000D000D48002802D00C48AFF3008000F09A
:10F4B0002BF82000290003F09BFF00F011F800BF9B
:10F4C0000000080000000120000000000000000013
:10F4D000A0210020382700200000000000000000CC
:10F4E00008B5074B044613B10021AFF30080054B6C
:10F4F0001868836A03B19847204600F031F800BFCE
:10F50000000000005460020070B50D4E0D4CA41BAD
:10F51000A4100025A54209D10B4E0C4C06F08EFD1F
:10F52000A41BA4100025A54205D170BD56F82530B6
:10F5300098470135EEE756F8253098470135F2E750
:10F540009421002094210020942100209821002063
:10F5500002440346934200D1704703F8011BF9E7C8
:10F56000FEE700BF80B586B000AF78600023BB81A6
:10F5700000233B617B687B6107F10C031A46002185
:10F5800044F2010000F018F800BF1837BD4680BDF6
:10F5900080B400AFBFF34F8F0549054BDB6803F420
:10F5A000E062044B1343CB60BFF34F8F00BFFDE716
:10F5B00000ED00E00400FA0580B584B000AFF8600B
:10F5C000B9607A60FFF7E4FF00BF1037BD4680BD29
:10F5D00080B483B000AF0346FB71094997F9073047
:10F5E0005B09FA7902F01F02012000FA02F241F8E9
:10F5F000232000BF0C37BD465DF8047B704700BF79
:10F6000000E100E080B483B000AF0346FB7109491C
:10F6100097F907305B09FA7902F01F02012000FA1E
:10F6200002F2203341F8232000BF0C37BD465DF8BD
:10F63000047B704700E100E080B483B000AF034674
:10F64000FB71094997F907305B09FA7902F01F024B
:10F65000012000FA02F2403341F8232000BF0C37AA
:10F66000BD465DF8047B704700E100E080B483B0E4
:10F6700000AF0346FB71094997F907305B09FA7936
:10F6800002F01F02012000FA02F2603341F8232049
:10F6900000BF0C37BD465DF8047B704700E100E019
:10F6A00080B483B000AF03463960FB7197F907302F
:10F6B000002B0BDA0D49FB7903F00F03043B3A688A
:10F6C000D2B25201D2B20B441A7609E0084997F936
:10F6D00007303A68D2B25201D2B20B4483F8002309
:10F6E00000BF0C37BD465DF8047B704700ED00E0BD
:10F6F00000E100E080B483B000AF78607B6803F085
:10F700000303002B0CBF01230023DBB218460C3788
:10F71000BD465DF8047B704780B485B000AF78606B
:10F72000254BFB607B68002B40D0244B1A68F9689E
:10F730007B6800BF00BF00BF00BF00BF00BF00BFAD
:10F7400000BF8A422FD000BF00BF00BF00BF00BF74
:10F7500000BF00BF00BF00BF00BF00BF00BF00BFB1
:10F7600000BF00BF00BF00BF00BF00BF00BF00BFA1
:10F7700000BF00BF00BF00BF00BF00BF00BF00BF91
:10F7800000BF00BF00BF00BF00BF00BF00BF00BF81
:10F7900000BF00BF00BF00BF00BF00BF00BF00BF71
:10F7A00000BF00BF00BF013BC3D17B6000BF143767
:10F7B000BD465DF8047B70470024F40090210020D2
:10F7C00080B582B000AF7860054A7B68C2F8083522
:10F7D00007211120FFF764FF00BF0837BD4680BD39
:10F7E0000010014080B500AF0D4B4FF48032C3F8DC
:10F7F00044230B4B4FF48032C3F804231120FFF74E
:10F8000035FF1120FFF7E4FE054B01221A602F207F
:10F81000FFF782FF034B01221A7000BF80BD00BFBB
:10F8200000100140DC21002080B500AF1120FFF75F
:10F83000E9FE0F4B4FF48032C3F848230C4B4FF4D2
:10F840008032C3F808230A4B01225A602F20FFF7A9
:10F8500063FF074B01229A60064B00221A602F209B
:10F86000FFF75AFF044B00221A7000BF80BD00BF93
:10F8700000100140C8210020DC21002080B400AF2E
:10F88000034BD3F804351846BD465DF8047B70473A
:10F890000010014080B483B000AF786039607A68AE
:10F8A0003B68D31A23F07F4318460C37BD465DF8FA
:10F8B000047B704780B483B000AF7860044A7B68F3
:10F8C000C2F8403500BF0C37BD465DF8047B704779
:10F8D0000010014080B487B000AF7860294B1B68EE
:10F8E000002B03D1274A7B68136045E07B681A68C8
:10F8F000244B1B681B689A4210D8224B1B68214A74
:10F90000126811687A6812688A1A1A601D4B1A68A0
:10F910007B68DA611B4A7B6813602DE07B681B689B
:10F92000FB60184B1B687B61164B1B683B6109E051
:10F930003B691B68FA68D31AFB603B697B613B69D2
:10F94000DB693B613B69002B04D03B691A68FB68AB
:10F950009A42EDD33B69002B05D03B691A68FB68DE
:10F96000D21A3B691A607B68FA681A607B683A6948
:10F97000DA617B697A68DA6100BF1C37BD465DF8E1
:10F98000047B7047C421002080B487B000AF78604A
:10F99000234B1B687B617B693B6108E03A697B68AC
:10F9A0009A4208D03B697B613B69DB693B613B69FB
:10F9B000002BF3D100E000BF3B69002B29D07A690E
:10F9C0003B699A4211D1164B1B68DB69144A1360DC
:10F9D000134B1B68002B08D1124B01229A60124B6B
:10F9E00000221A60114B01221A703B691B68FB60F0
:10F9F0003B69DA697B69DA617B69DB693B613B6999
:10FA0000002B07D03B691A68FB681A443B691A60EF
:10FA100000E000BF1C37BD465DF8047B704700BFA7
:10FA2000C421002000100140C8210020DD21002059
:10FA300080B500AF1120FFF7FFFD00BF80BD80B58E
:10FA400000AF1420FFF7F8FD00BF80BD80B584B083
:10FA500000AF78600F4B1B68002B11D00D4B1B685B
:10FA60007A6850697A68926911469847F860FB682D
:10FA7000BB60BB68002B09D0B868FFF773FD05E0D9
:10FA80007B685B697A6892691046984700BF1037B7
:10FA9000BD4680BDD821002080B584B000AF2B4B7F
:10FAA0001B68002B4ED000237B60FFF7E7FE024669
:10FAB000274B1B6819461046FFF7ECFEB860234B36
:10FAC0001B68FB601DE0FB681A68BB689A421CD883
:10FAD000FB681B68BA68D31ABB60FB681B687A684E
:10FAE00013447B60FB683B60FB68DB69FB603B6841
:10FAF0001B7C002B05D03B6800221A743868FFF786
:10FB0000A5FFFB68002BDED100E000BF114B1A7887
:10FB1000114B1B789A420CD10F4B1B780133DAB290
:10FB20000D4B1A700C4B1B78022B02D10A4B002292
:10FB30001A70094B1B781946084A7B6842F8213035
:10FB4000FFF77DFF00BF1037BD4680BDC4210020F8
:10FB5000C8210020D4210020D5210020CC21002064
:10FB600080B483B000AF7860194B1A78194B1B78BA
:10FB70009A4223D0164B1B780133DAB2144B1A7019
:10FB8000134B1B78022B02D1114B00221A70104B21
:10FB90001B781A46104B53F822207B681A607B684A
:10FBA0001A680E4B1B6813440C4A13600B4B1B68FE
:10FBB00023F07F43094A1360012303E07B6800229E
:10FBC0001A60002318460C37BD465DF8047B704769
:10FBD000D4210020D5210020CC210020C8210020E4
:10FBE00080B584B000AF244B1B78FB73234B1B689C
:10FBF000BB602FE0204B5968FA7B13465B0013442F
:10FC0000DB000B447B60FB7B0133FB731A4B9B785F
:10FC1000FA7B9A4201D10023FB737B681B78022B8D
:10FC200002D0032B10D014E07B685B681846FFF706
:10FC3000ABFE0FE0114B1B683B603B6800221A745F
:10FC40003B68DB690D4A13600C4B1B68002BF1D13C
:10FC500000E000BF084B5B78FA7B9A42CAD1074BA1
:10FC60001A68BB689A4214BF01230023DBB218460E
:10FC70001037BD4680BD00BFBC210020C42100203C
:10FC800080B489B000AFF860B9607A600023FB618E
:10FC900038E0214B1B68BB61BB691A68FB689A425C
:10FCA00006D9BB691A68FB68D21ABB691A602DE0D5
:10FCB000BB691B68FA68D31AFB60BB691B68FA69E9
:10FCC0001344FB61BB6900221A60134B1B687B6104
:10FCD000BB69DB69104A1360BB69DB68002B11D07C
:10FCE000BA68FB69134423F07F42BB695A60BB6961
:10FCF000DA68BB699A607B681A68BB69DA617B68FD
:10FD00007A691A60044B1B68002BC2D100BF2437EC
:10FD1000BD465DF8047B7047C421002080B586B0E5
:10FD200000AF7860504B1B683B6185E07B68002B1F
:10FD300005D07B687B617B69DB697B603CE04B4B7A
:10FD40005A684A4B1B7819460B465B000B44DB0094
:10FD50001344FB60454B1B780133DAB2434B1A70F6
:10FD6000424B1A78414B9B789A4202D13F4B00227A
:10FD70001A70FB685B687B61FB681B78012B5BD1A9
:10FD80007B691B7C002B00D056E0FB689A687B697E
:10FD90005A60FB68DA687B699A60FB681A697B695C
:10FDA000DA60FB685A697B699A61314B1B78002BDA
:10FDB00002D07B6900225A607B695A682D4B1B6810
:10FDC000D31A23F07F432C4A93420ED87B695A689A
:10FDD000284B1B6819461046FFF75CFD02467B69FD
:10FDE0009B681A447B691A6017E0224B1A687B698A
:10FDF0005B6819461046FFF74DFDB8607B699A684D
:10FE0000BB689A4206D97B699A68BB68D21A7B693B
:10FE10001A6002E07B6900221A607B6900225A6046
:10FE20007B6900229A607B6901221A747B69002237
:10FE3000DA617869FFF74EFD7B68002B7FF476AFBF
:10FE40000A4B1A78094B5B789A427FF46FAF064BE6
:10FE50001A683B699A4214BF01230023DBB218469B
:10FE60001837BD4680BD00BFC4210020BC21002042
:10FE7000DD210020C8210020FEFF7F0090B589B061
:10FE800000AF7860274B1B68002B44D0254B1B68C4
:10FE90001B68FB61FFF7F2FCB861234B1B687B61B9
:10FEA0007969B869FFF7F6FC034603333B611F4BE2
:10FEB0001B7883F00103DBB2002B01D0FFF792FC2B
:10FEC0003A69FB69934238BF13467A6913447B61F0
:10FED0007B6923F07F437B617869FFF7EBFCFFF7D9
:10FEE000CDFCF860B969F868FFF7D4FC0346DC1C68
:10FEF000B9697869FFF7CEFC03469C420DD9FFF73C
:10FF0000BDFC03461846FFF7D5FC2F20FFF704FC85
:10FF1000FFF78EFD01E0FFF787FC00BF2437BD46E9
:10FF200090BD00BFC4210020C8210020DC2100209A
:10FF300080B586B000AF00237B60184B1B683B6127
:10FF4000174B1B68FB603B461846FFF709FE03464C
:10FF5000FB72FFF745FE0346FB75FB7A002B07D0CB
:10FF60003B683A1D39691846FFF78AFE0123FB7585
:10FF70007B681846FFF7D2FE0346002B01D0012311
:10FF8000FB75FB7D002B02D0F868FFF777FF054B70
:10FF900000221A7000BF1837BD4680BDC82100205E
:10FFA000C4210020DD21002080B483B000AF0346CF
:10FFB000FB71044AFB79537000BF0C37BD465DF8F6
:10FFC000047B7047BC21002080B485B000AF78600E
:10FFD000134B5B780133FB73114B9B78FA7B9A428E
:10FFE00001D10023FB730E4B1B78FA7B9A4201D19F
:10FFF00000230EE07B68FA7B1A70094B5A68084BA5
:020000022000DC
:100000005B7819460B465B000B44DB001344BB6076
:10001000BB6818461437BD465DF8047B704700BFC7
:10002000BC21002080B588B000AFF860B9607A606C
:100030003B600023FB610023BB7507F116031846E4
:1000400000F0E8F907F117031846FFF7BDFFB861A4
:10005000BB69002B02D10423FB6117E0BB690122BD
:100060001A70BB69FA685A60FFF708FC0246BB6960
:100070009A60BB69BA68DA60BB697A681A61BB6961
:100080003A685A61FB7D1846FFF78EFFBB7D184624
:1000900000F0CBF9FB69002B01D1FFF7D0FCFB6925
:1000A00018462037BD4680BD80B586B000AF786069
:1000B0000B46FB7000237B610023BB7307F10E032B
:1000C000184600F0A7F907F10F031846FFF77CFF69
:1000D00038613B69002B02D104237B6109E03B6955
:1000E000FA781A703B697A685A60FB7B1846FFF70A
:1000F0005BFFBB7B184600F098F97B69002B01D1B0
:10010000FFF79DFC7B6918461837BD4680BD00008F
:1001100080B500AF0D4B0022C3F840210B4B0022ED
:10012000C3F84421094B0022C3F84821074B0022A1
:10013000C3F84C21054B0022C3F80021034B0022D9
:10014000C3F80421FFF7A8FC00BF80BD00100140E8
:1001500080B500AFFFF7ECFE00BF80BD80B584B076
:1001600000AFF8607A603B600B46FB727868FFF77F
:10017000C1FA034683F00103DBB2002B01D0072351
:1001800031E07B68002B01D107232CE0FFF74CFB0B
:10019000174A3B681360174B00221A70154B002258
:1001A0005A70144AFB7A9370124A7B685360124B60
:1001B00000221A60114B00221A70114B00221A7093
:1001C0001420FFF753FA07211420FFF769FA1420CF
:1001D000FFF7FEF9F868FFF7F3FAFFF74FFB024667
:1001E000084B1A60002318461037BD4680BD00BF7B
:1001F000D8210020BC210020C4210020D4210020CF
:10020000D5210020C821002080B487B000AFF8605D
:100210000B467A60FB72154B5B68002B01D10823FB
:100220001DE07B68002B01D1072318E0FB68002B41
:1002300001D1072313E0FB681B681B7C002B01D056
:1002400008230CE0FB681B687B617B6900221A7441
:100250007B69FA7A5A747B697A685A610023184676
:100260001C37BD465DF8047B704700BFBC210020F1
:1002700080B586B000AFF860B9607A60FB687B61DA
:10028000144B5B68002B01D108231EE0FB68002B98
:1002900001D1082319E0BB68042B01D8072314E01F
:1002A0007B695B69002B01D108230EE07B695B7CD5
:1002B000012B01D1BB6800E000233B617B683A69F8
:1002C000B9687869FFF7AEFE034618461837BD4691
:1002D00080BD00BFBC21002080B584B000AF786035
:1002E0007B68FB600D4B5B68002B01D1082310E09D
:1002F0007B68002B03D0FB685B69002B01D10823CE
:1003000007E0FB6800221A740221F868FFF7CCFEB0
:10031000034618461037BD4680BD00BFBC210020F3
:1003200080B483B000AFEFF310833B603B687B6029
:1003300072B67B6818460C37BD465DF8047B704783
:1003400080B400AF62B600BFBD465DF8047B704765
:1003500080B584B000AF7860FFF7E2FFF860164B1D
:100360009B68002B1BD1144B01229A60134BD3F8CE
:100370008020134B1340104A1360104B104AC3F8EF
:1003800080200E4BD3F884300B4A53600B4B4FF058
:10039000FF32C3F884207B6800221A7002E07B6879
:1003A00001221A70FB68002B01D1FFF7C9FF00235F
:1003B00018461037BD4680BD4826002000E100E009
:1003C000FC06FFBC80B584B000AF0346FB710F4B49
:1003D0009B68002B15D0FB79002B12D1FFF7A0FFF3
:1003E000F8600B4A094B1B681360094A074B5B68AE
:1003F0005360064B00229A60FB68002B01D1FFF787
:100400009FFF002318461037BD4680BD48260020B8
:1004100000E100E080B582B000AF78607868FFF757
:1004200097FF00BF0837BD4680BD80B582B000AFE2
:100430000346FB71FB791846FFF7C4FF00BF08377E
:10044000BD4680BD80B483B000AF78607B68002B70
:1004500001D1032304E0054B5A6E7B681A60002328
:1004600018460C37BD465DF8047B7047E02100203C
:1004700080B483B000AF78604FF0A04318460C37CB
:10048000BD465DF8047B704780B584B000AF7860EE
:100490003B1D1846FFF7ECFFF8607B68012202FA6B
:1004A00003F31946F86800F072F800BF1037BD4634
:1004B00080BD80B584B000AF78603B1D1846FFF763
:1004C000D7FFF8607B68012202FA03F31946F86847
:1004D00000F06CF800BF1037BD4680BD80B584B019
:1004E00000AF78603B1D1846FFF7C2FFF860FB685D
:1004F000D3F80435BB60BB68DA437B68012101FA9D
:1005000003F31A40FB68C3F808257B6801229A4070
:10051000BB681A40FB68C3F80C2500BF1037BD4606
:1005200080BD80B582B000AF786039603B68002B39
:1005300003D17868FFF7BDFF02E07868FFF7A4FFFA
:1005400000BF0837BD4680BD80B584B000AF78607D
:100550003B1D1846FFF78CFFF860F86800F00AF8BA
:1005600002467B6822FA03F303F0010318461037B2
:10057000BD4680BD80B483B000AF78607B68D3F89F
:10058000043518460C37BD465DF8047B704780B4CF
:1005900083B000AF786039607B683A68C3F808259B
:1005A00000BF0C37BD465DF8047B704780B483B054
:1005B00000AF786039607B683A68C3F80C2500BFEB
:1005C0000C37BD465DF8047B7047000080B584B0F1
:1005D00000AF78600E4A7B6813441B781846FFF71B
:1005E000B3FF0346002B14BF01230023FB73FB7BE7
:1005F000002B14BF01230023DBB283F00103DBB225
:1006000003F00103DBB218461037BD4680BD00BFC2
:100610005860020080B582B000AF7860054A7B6800
:1006200013441B7800211846FFF77BFF00BF0837F3
:10063000BD4680BD5860020080B582B000AF7860D2
:10064000054A7B6813441B7801211846FFF769FFB0
:1006500000BF0837BD4680BD5860020080B582B03B
:1006600000AF00237B6005E07868FFF7E5FF7B685B
:1006700001337B607B68032BF6D900BF0837BD468A
:1006800080BD80B582B000AF00237B6005E0786854
:10069000FFF7C0FF7B6801337B607B68032BF6D9D3
:1006A00000BF0837BD4680BD80B582B000AF78601E
:1006B000054A7B6813441B781846FFF70FFF00BFFD
:1006C0000837BD4680BD00BF5860020080B483B0CB
:1006D00000AF7860044A7B6813441B7818460C37D7
:1006E000BD465DF8047B70475C60020080B483B057
:1006F00000AF78604FF080427B68C2F8083300BFDB
:100700000C37BD465DF8047B704780B485B000AF00
:100710000346FB80FB8803F1804300221A60FB88BC
:1007200003F180431B68FB60FB6800BF1437BD46C4
:100730005DF8047B704780B483B000AF0346FB8054
:10074000FB8803F180431B68002B14BF01230023A7
:10075000DBB218460C37BD465DF8047B704780B4A9
:1007600083B000AF0346FB714FF08042FB7903F08A
:100770000303C2F8183500BF0C37BD465DF8047B93
:100780007047000080B483B000AF0346FB710C4A91
:1007900097F907305B0952F82320FB7903F01F0318
:1007A00022FA03F303F00103002B14BF01230023FB
:1007B000DBB218460C37BD465DF8047B704700BFBE
:1007C00000E100E080B500AF0020FFF7DBFF03464B
:1007D00083F00103DBB2002B03D00721002000F0DF
:1007E0002BF900BF80BD000080B582B000AF0023B0
:1007F0007B60144B1B78002B02D085237B601BE0B1
:10080000104B00229A600F4B00225A600D4B0022C1
:100810001A610C4B0022DA60FFF7D4FF05F026FBCB
:10082000034683F00103DBB2002B02D00120FFF767
:1008300096FF044B01221A707B6818460837BD46A4
:1008400080BD00BF4822002080B485B000AF786032
:100850007B681B68FB60FB68002B03D0FB681A6891
:100860007B681A60FB6818461437BD465DF8047B48
:100870007047000080B584B000AF0346FB71FB7980
:10088000002B02D10B4BFB6001E00B4BFB60F868C7
:10089000FFF7DAFFB860BB68002B05D0BB685B6868
:1008A000FA7910469847F2E700BF00BF1037BD46FF
:1008B00080BD00BF502200205822002080B500AF2C
:1008C0004FF48070FFF737FF0346002B0CD04FF436
:1008D0008070FFF71AFF0120FFF708FF0D4B012280
:1008E0005A700020FFF7C6FF4FF48270FFF723FF16
:1008F0000346002B0CD04FF48270FFF706FF022056
:10090000FFF7F4FE034B01229A700120FFF7B2FFBC
:1009100000BF80BD4822002080B582B000AF786063
:100920007B68002B02D10020FFF7A4FF00BF08372F
:10093000BD4680BD80B582B000AF0023FB71FB1DBA
:100940001846FFF767FD0C4B1B7883F00103DBB201
:10095000002B01D0FFF748FF074BDB680133064A45
:10096000D360054B01229A70FB791846FFF75DFDB5
:1009700000BF0837BD4680BD4822002080B483B048
:1009800000AF0346FB71094997F907305B09FA7913
:1009900002F01F02012000FA02F241F8232000BFFA
:1009A0000C37BD465DF8047B704700BF00E100E0F6
:1009B00080B483B000AF0346FB71094997F9073053
:1009C0005B09FA7902F01F02012000FA02F260339B
:1009D00041F8232000BF0C37BD465DF8047B70470B
:1009E00000E100E080B483B000AF03463960FB71E2
:1009F00097F90730002B0BDA0D49FB7903F00F0351
:100A0000043B3A68D2B25201D2B20B441A7609E0E2
:100A1000084997F907303A68D2B25201D2B20B4472
:100A200083F8002300BF0C37BD465DF8047B704798
:100A300000ED00E000E100E080B582B000AF0346C9
:100A40000A46FB711346BB71BA7997F90730114614
:100A50001846FFF7C7FF97F907301846FFF7A8FFBA
:100A600097F907301846FFF789FF00BF0837BD46E2
:100A700080BD80B582B000AF0346FB80FB8818467E
:100A800000F024F803461B68012B0CBF0123002350
:100A9000DBB218460837BD4680BD80B584B000AFD4
:100AA0000346FB80FB88184600F010F803461A4600
:100AB00000231360FB88184600F008F803461B6803
:100AC000FB60FB6800BF1037BD4680BD80B483B0BB
:100AD00000AF0346FB80FB8803F1804303F5C0436E
:100AE00018460C37BD465DF8047B704780B483B070
:100AF00000AF7860054BD3F804237B681340184699
:100B00000C37BD465DF8047B704700BF00600040B5
:100B100080B483B000AF7860074A7B6803F5A273A6
:100B200052F823301B0A03F01F0318460C37BD464A
:100B30005DF8047B704700BF0060004080B483B064
:100B400000AF7860074A7B6803F5A27352F8233040
:100B50001B0C03F00303DBB218460C37BD465DF8EF
:100B6000047B70470060004080B483B000AF7860C1
:100B70004FF0A04318460C37BD465DF8047B704724
:100B800080B584B000AF78600B46FB703B1D184603
:100B9000FFF7EAFFF8607A687968FB6801F5E071B1
:100BA00053F8213023F44031FB6802F5E07243F83A
:100BB00022107A687968FB6801F5E07153F82130FA
:100BC000F97809041943FB6802F5E07243F8221032
:100BD00000BF1037BD4680BD80B584B000AF7860DF
:100BE0003B1D1846FFF7C0FFF8607A68FB6802F506
:100BF000E07253F822301B0C03F00303DBB21846FB
:100C00001037BD4680BD80B483B000AF78607B688C
:100C1000D3F8103518460C37BD465DF8047B704795
:100C200080B586B000AFF860B9607A604FF0A0433D
:100C30003B61FB687B6112E07B699B0007F1180256
:100C4000134453F8083C1846FFF7DDFF02467B6863
:100C50001A607B6804337B607B6901337B61FA68CF
:100C6000BB681A447B699A42E6D800BF1837BD4674
:100C700080BD80B485B000AF786039603B68FB60B0
:100C80007B68DB08BB607B6803F007037B600122A5
:100C90007B6802FA03F3F968BA680A4412781340D1
:100CA00018461437BD465DF8047B704780B485B0A4
:100CB00000AF786039603B68FB607B68DB08BB6035
:100CC0007B6803F007037B60FA68BB681344F9682C
:100CD000BA680A44127851B201207A6800FA02F226
:100CE00052B20A4352B2D2B21A7000BF1437BD4694
:100CF0005DF8047B7047000080B483B000AF78607B
:100D0000054A7B681344303393F9003018460C379A
:100D1000BD465DF8047B70475C22002080B483B040
:100D200000AF7860044A7B6852F8233018460C37CD
:100D3000BD465DF8047B70475C22002080B594B00E
:100D400000AF0023FB640023FB604FF48073A7F81F
:100D5000463001233B640023BB6421E0B7F84630F2
:100D60001846FFF786FE0346002B0ED0386CFFF7BF
:100D7000BDFE0346002B08D0B7F846301846FFF7F3
:100D80008CFEFA6C3B6C1343FB643B6C5B003B6476
:100D9000B7F846300433A7F84630BB6C0133BB6468
:100DA000BB6C072BDAD94FF4BE70FFF762FE034627
:100DB000002B0ED04FF4BE70FFF76FFEFB6C43F0BC
:100DC0000043FB6407F10C031A4601210020FFF7E2
:100DD00027FFFB6CDBB2002B29D001233B640023EF
:100DE000BB6421E03A6CFB6C1340002B16D0B86C4E
:100DF000FFF78EFE7863B86CFFF7A0FE034687F816
:100E00003330B86CFFF78AFFF862FB6A002B05D01D
:100E100097F83320FB6A1146786B98473B6C5B0070
:100E20003B64BB6C0133BB64BB6C072BDAD9FB6C36
:100E3000002B80F2F180002387F83B300023BB6059
:100E40000023FB630BE0FB6B9B0007F15002134494
:100E50004FF0FF3243F84C2CFB6B0133FB63FB6B11
:100E6000002BF0D0002387F83B300023BB6474E0F4
:100E70006B4ABB6C1344503393F9003087F82B3026
:100E800097F82B3023F0C0037B62654ABB6C134498
:100E9000503393F90030B3F1FF3F5BD03B1D19464F
:100EA000786AFFF7E6FE0346002B53D097F82B3005
:100EB0009B0987F82330786AFFF71EFF0346184620
:100EC000FFF72CFFF861FB69002B03D197F8233063
:100ED000032B3FD197F82330032B05D107F10803EB
:100EE0001946786AFFF7E2FE786AFFF775FE034657
:100EF000FB7607F10C031946786AFFF7BAFE7861B2
:100F00007B69002B02D0FB7E022B05D07B69002B76
:100F100020D1FB7E032B1DD197F82330032B10D15A
:100F2000FB7E022B01D1032300E00223FB74FB7C38
:100F30001946786AFFF724FE97F83B30013387F8AB
:100F40003B30FB69002B05D097F82320FB69114645
:100F5000786A9847BB6C0133BB64BB6C032B87D9A1
:100F600097F83B30002B52D0012387F83A303B46AC
:100F70001A4601210020FFF753FE0023FB6316E011
:100F8000FB6B9B0007F15002134453F8502CFB6B92
:100F90009B0007F150010B4453F8443C9A4203D0A4
:100FA000002387F83A3005E0FB6B0133FB63FB6BF2
:100FB000002BE5D097F83A30002B03D0002387F8B8
:100FC0003B3024E00023FB631EE0FB6B9B0007F13A
:100FD0005002134453F8502CFB6B9B0007F1500157
:100FE0000B4443F8442CFB6B9B0007F15002134465
:100FF00053F8482CFB6B9B0007F150010B4443F85E
:101000004C2CFB6B0133FB63FB6B002BDDD097F8A3
:101010003B30002B7FF426AF00BF5037BD4680BD6C
:101020005C22002080B483B000AF78600B46FB7078
:10103000FB787A68134401221A6000BF0C37BD4662
:101040005DF8047B704780B485B000AF78600B46D4
:101050007B807B887A68134400221A607B887A68D8
:1010600013441B68FB60FB6800BF1437BD465DF886
:10107000047B704780B483B000AF78600B467B8000
:101080007B887A6813441B68002B14BF012300235C
:10109000DBB218460C37BD465DF8047B704780B460
:1010A00083B000AF786039607B683A68C3F8042386
:1010B00000BF0C37BD465DF8047B704780B483B039
:1010C00000AF786039607B683A68C3F8082300BFD6
:1010D0000C37BD465DF8047B704780B483B000AF29
:1010E00078607B680622C3F8002500BF0C37BD4638
:1010F0005DF8047B704780B485B000AFF860B960DC
:101100007A60FB68BA68C3F80825FB687A68C3F898
:101110000C2500BF1437BD465DF8047B704780B4D2
:1011200083B000AF786039607B683A68C3F82425E3
:1011300000BF0C37BD465DF8047B704780B485B0B6
:1011400000AF78607B68D3F8C434FB607B68FA68D2
:10115000C3F8C424FB6818461437BD465DF8047B09
:10116000704780B483B000AF78600B46FB70FA78AC
:101170007B68C3F8882500BF0C37BD465DF8047B4B
:10118000704780B485B000AFF860B9601346FB715A
:10119000BA68FB68C3F84425FA79FB68C3F84825A8
:1011A00000BF1437BD465DF8047B704780B485B03E
:1011B00000AFF860B9601346FB71BA68FB68C3F80A
:1011C0003425FA79FB68C3F8382500BF1437BD46CB
:1011D0005DF8047B704780B483B000AF78603960FD
:1011E0007B683A68C3F8002200BF0C37BD465DF843
:1011F000047B704780B483B000AF78607B68D3F81D
:101200004C3518460C37BD465DF8047B704780B4FA
:1012100083B000AF78607B68D3F83C3518460C3754
:10122000BD465DF8047B704780B483B000AF786042
:101230007B680122C3F8502500BF0C37BD465DF81E
:10124000047B704780B483B000AF78607B68002275
:10125000C3F8502500BF0C37BD465DF8047B7047CE
:1012600080B483B000AF78607B680122C3F840256A
:1012700000BF0C37BD465DF8047B704780B483B077
:1012800000AF78607B680022C3F8402500BF0C37B0
:10129000BD465DF8047B704780B485B000AF7860D0
:1012A0007B681B0BFB7397F90F3018461437BD464C
:1012B0005DF8047B704780B483B000AF78607B68D2
:1012C00003F06043B3F1005F0CBF01230023DBB2E6
:1012D00018460C37BD465DF8047B704780B483B078
:1012E00000AF78604FF0A04318460C37BD465DF85C
:1012F000047B704780B584B000AF78603B1D184612
:10130000FFF7ECFFF8607B68012202FA03F319464D
:10131000F86800F03CF800BF1037BD4680BD80B5CE
:1013200084B000AF78603B1D1846FFF7D7FFF86028
:101330007B68012202FA03F31946F86800F036F8D8
:1013400000BF1037BD4680BD80B584B000AF786067
:101350003B1D1846FFF7C2FFF860F86800F00AF876
:1013600002467B6822FA03F303F0010318461037A4
:10137000BD4680BD80B483B000AF78607B68D3F891
:10138000103518460C37BD465DF8047B704780B4B5
:1013900083B000AF786039607B683A68C3F808258D
:1013A00000BF0C37BD465DF8047B704780B483B046
:1013B00000AF786039607B683A68C3F80C2500BFDD
:1013C0000C37BD465DF8047B7047000080B485B0E3
:1013D00000AF7860254BFB607B68002B40D0244B2E
:1013E0001A68F9687B6800BF00BF00BF00BF00BF7C
:1013F00000BF00BF00BF8A422FD000BF00BF00BFA8
:1014000000BF00BF00BF00BF00BF00BF00BF00BFE4
:1014100000BF00BF00BF00BF00BF00BF00BF00BFD4
:1014200000BF00BF00BF00BF00BF00BF00BF00BFC4
:1014300000BF00BF00BF00BF00BF00BF00BF00BFB4
:1014400000BF00BF00BF00BF00BF00BF00BF00BFA4
:1014500000BF00BF00BF00BF00BF013BC3D17B6026
:1014600000BF1437BD465DF8047B70470024F400CC
:101470009021002080B485B000AF78600323FB602A
:101480007B6803F00103002B02D04FF40243FB60A2
:101490007B6803F00203002B02D048F20123FB60BB
:1014A0007B6803F00403002B02D048F20223FB60A8
:1014B000FB6818461437BD465DF8047B704780B55D
:1014C00084B000AF78604FF0A0427B681B6803F5E2
:1014D000E07340F20C6142F823104FF0A0427B68A9
:1014E0005B6803F5E07340F20C6142F823107B68FF
:1014F0001B681846FFF7FEFE7B685B681846FFF71F
:10150000F9FE4FF0A0427B681B6803F5E07340F2E0
:101510000D6142F823104FF0A0427B685B6803F531
:10152000E07340F20D6142F823100420FFF74EFFF4
:101530000023FB601EE07B685B681846FFF704FF32
:101540000346002B03D0FB68002B17D124E07B68F7
:101550001B681846FFF7E3FE0420FFF737FF7B68A0
:101560001B681846FFF7C6FE0420FFF72FFFFB6835
:101570000133FB60FB68082BDDDD00E000BF7B680A
:101580005B681846FFF7CBFE0420FFF71FFF7B6860
:101590005B681846FFF7AEFE1037BD4680BD000001
:1015A00080B588B000AFF860B9607A603B60FB68D6
:1015B0001B791A4613469B001344DB00344A13443C
:1015C000FB61FB6993F82230002B03D00823BB6139
:1015D000BB6959E0FB697A681A60FB693A685A602E
:1015E000FB6900229A60FB69002283F82520FB69D1
:1015F000002283F82420BB689A7BFB6983F82720AC
:10160000BB685B7B002B02D0B868FFF758FF4FF038
:10161000A042BB681B6803F5E07340F20C6142F81E
:1016200023104FF0A042BB685B6803F5E07340F203
:101630000C6142F82310FB681B687B61BB6819686A
:10164000BB685B681A467869FFF755FDBB689B6805
:1016500019467869FFF763FDFB691B68002B0CD006
:10166000FB681B681846FFF717FE03461A46BB685F
:101670001B7B19461046FFF7DFF9FB69012283F84F
:1016800022200023BB61BB6918462037BD4680BDC0
:10169000B422002080B584B000AF78607B681B79ED
:1016A0001A4613469B001344DB00084A1344FB60B0
:1016B0007B681B68BB60B868FFF70FFDFB68022200
:1016C00083F8222000BF1037BD4680BDB422002021
:1016D00080B582B000AF786039603B6803F00103E9
:1016E000002B03D07868FFF79FFD02E07868FFF7D2
:1016F000A9FD3B6803F00203002B03D07868FFF7D5
:10170000AFFD02E07868FFF7B9FD00BF0837BD46BE
:1017100080BD000080B588B000AFF860B9607A6025
:101720003B600023FB610823FB764FF482733B830D
:101730007B685B681846FFF7BEFD034683F0010334
:10174000DBB2002B03D01023FB61FB6971E14FF08A
:10175000FF31B868FFF7B2FCFB6893F82430DBB2C6
:10176000002B09D0FB689B681946B868FFF797FC07
:101770001123FB61FB695CE13B6803F00403002B70
:1017800006D13B6803F01003002B01D1012300E0D8
:10179000002303F00103DAB2FB6883F82420FB681E
:1017A0007A680C3307CA83E807003B6803F010032C
:1017B000002B14BF01230023DAB2FB6883F8252035
:1017C0007B685B781946B868FFF7CBFC4FF48271F1
:1017D000B868FFF738FC4FF49271B868FFF733FC34
:1017E0003968B868FFF774FF7B681B78032B00F239
:1017F000C88001A252F823F0FB180200531902001E
:10180000A9180200091802007B689B681846FFF7B8
:1018100052FD034683F00103DBB2002B03D01023FB
:10182000FB61FB6905E14FF48071B868FFF7D3FCF9
:101830007B6859687B689B781A46B868FFF7A1FCFB
:101840004FF4A871B868FFF7FEFB4FF4B071B868A9
:10185000FFF7F9FB4FF4A471B868FFF7F4FB202100
:10186000B868FFF7DFFB0821B868FFF7DBFB00BFB4
:101870004FF4A871B868FFF7FDFB034683F001033E
:10188000DBB2002BF4D14FF4A871B868FFF7DBFB93
:101890007B6899687B68DB781A46B868FFF771FC4B
:1018A000FB68664A9A606FE07B6859687B689B7842
:1018B0001A46B868FFF765FC7B689B681846FFF717
:1018C000FAFC034683F00103DBB2002B03D01023A4
:1018D000FB61FB69ADE07B6899687B68DB781A4641
:1018E000B868FFF763FC4FF48451B868FFF773FCE6
:1018F000FB6840F202229A6046E07B6859687B6888
:101900009B781A46B868FFF73CFC3B6803F020035D
:10191000002B10D04FF48071B868FFF75CFCFB68B7
:10192000464A9A604FF4A471B868FFF78CFB4FF4F5
:10193000A4733B8308E04FF40071B868FFF74BFCD9
:10194000FB6840F202229A602021B868FFF76AFB28
:101950001AE07B6859687B689B781A46B868FFF77D
:1019600025FC4FF48051B868FFF735FCFB6840F266
:1019700002229A600023FB762021B868FFF752FB11
:1019800002E00723FB6100BF3B6803F00803002B64
:1019900008D17B681B78032B04D0FB7E1946B868FE
:1019A000FFF740FBFB681B68002B27D03B6803F068
:1019B0000403002B03D0FB684FF400729A60FB68AD
:1019C0009B681946B868FFF76AFB31E04FF49271E3
:1019D000B868FFF74FFB0346002B0FD04FF492710E
:1019E000B868FFF730FB2021B868FFF71BFB142114
:1019F000B868FFF717FB4FF482733B833B8B1946A4
:101A0000B868FFF737FB034683F00103DBB2002B16
:101A1000DCD1B868FFF792FB7861FB68002283F89D
:101A200024207B69002B03D07869FFF723FDF86140
:101A3000FB6918462037BD4680BD00BF0002040088
:101A400080B586B000AFF860B9607A6000237B6132
:101A5000FB681B791A4613469B001344DB00084AB7
:101A600013443B61FB6819687B68BA683869FFF703
:101A700051FE78617B6918461837BD4680BD00BFAE
:101A8000B422002080B588B000AFF8607A601A46B2
:101A90000B46FB721346BB7207F1140300221A6057
:101AA0005A609A60FB7A7B75BB7ABB757B68BB61B9
:101AB00097F82830002B01D0202200E0002207F107
:101AC00014031946F868FFF7BBFF03461846203792
:101AD000BD4680BD80B588B000AFF8607A601A4618
:101AE0000B46FB721346BB7207F1140300221A6007
:101AF0005A609A6001233B75FB7A7B75BB7ABB7594
:101B00007B68BB6107F1140300221946F868FFF7F0
:101B100097FF034618462037BD4680BD80B588B084
:101B200000AF786039604FF492717868FFF7A2FADD
:101B30000346002B27D04FF492717868FFF783FAA1
:101B40004FF482717868FFF795FA034683F001033A
:101B5000DBB2002B17D03B689B6819467868FFF70B
:101B6000ADFA3B6802229A603B689B681946786828
:101B7000FFF795FA20217868FFF754FA1421786866
:101B8000FFF750FAC8E04FF482717868FFF772FAF5
:101B90000346002B54D04FF482717868FFF753FA54
:101BA0003A6807F110030C3207CA83E807003B6864
:101BB00093F82330002B1FD03B681B7B012B05D1F2
:101BC0007868FFF724FB0346DBB204E07868FFF790
:101BD00011FB0346DBB2BB743B681B7B022B05D1B8
:101BE0007868FFF714FB0346DBB204E07868FFF780
:101BF00001FB0346DBB2FB744FF4B0717868FFF76A
:101C000022FA4FF4AE717868FFF71DFA3B6893F83B
:101C1000253083F00103DBB2002B04D13B6893F83D
:101C20002330002B4ED000217868FFF7D4FA3B68B0
:101C300000229A604FF0FF317868FFF73FFA41E0E9
:101C40004FF4A4717868FFF7FEF93B681B7B002B0B
:101C50001BD13A6807F110030C3207CA83E807006A
:101C60003B6893F8253083F00103DBB2002B29D0C9
:101C700000217868FFF7AFFA3B6800229A604FF0C6
:101C8000FF317868FFF71AFA1CE04FF400717868AA
:101C9000FFF7A1FA3B6840F202229A604FF0FF3151
:101CA0007868FFF70BFA3B689B6819467868FFF77E
:101CB000F6F908217868FFF7B5F920217868FFF771
:101CC000B1F929E07868FFF739FAF861FB6903F0A8
:101CD0000203002B02D001233B7309E0FB6903F0F0
:101CE0000403002B02D002233B7301E000233B736B
:101CF0003B6893F8253083F00103DBB2002B03D05F
:101D00003B68002283F824203B681B683A685168CE
:101D100007F10C02104698472037BD4680BD0000F1
:101D200080B500AF02490348FFF7F8FE00BF80BD51
:101D3000B42200200030004080B485B000AF78604D
:101D40000B467B807B887A68134400221A607B886C
:101D50007A6813441B68FB60FB6800BF1437BD46FC
:101D60005DF8047B704780B483B000AF78600B46A9
:101D70007B807B887A6813441B68002B14BF012387
:101D80000023DBB218460C37BD465DF8047B704774
:101D900080B483B000AF786039607B68D3F80423E7
:101DA0003B681340002B14BF01230023DBB218460D
:101DB0000C37BD465DF8047B704780B483B000AF3C
:101DC000786039607B683A68C3F8082300BF0C3735
:101DD000BD465DF8047B704780B485B000AF786085
:101DE0007B68D3F88034FB607B68FA68C3F8802492
:101DF000FB6818461437BD465DF8047B704780B415
:101E000083B000AF78607B68D3F81835DBB2184632
:101E10000C37BD465DF8047B704780B483B000AFDB
:101E200078600B46FB70FA787B68C3F81C2500BF0E
:101E30000C37BD465DF8047B704780B483B000AFBB
:101E400078600B46FB70FB787A68134401221A60B5
:101E500000BF0C37BD465DF8047B704780B485B089
:101E600000AF78600B467B807B887A681344002241
:101E70001A607B887A6813441B68FB60FB6800BFAC
:101E80001437BD465DF8047B704780B483B000AF63
:101E900078600B467B807B887A6813441B68002B34
:101EA00014BF01230023DBB218460C37BD465DF892
:101EB000047B704780B483B000AF786039607B6882
:101EC000D3F800223B68DB431A407B68C3F800224A
:101ED00000BF0C37BD465DF8047B704780B485B009
:101EE00000AF78607B68D3F88034FB607B68FA6869
:101EF000C3F88024FB6818461437BD465DF8047BA0
:101F0000704780B483B000AF78607B68D3F84C35FD
:101F100018460C37BD465DF8047B704780B483B02B
:101F200000AF78607B68D3F83C3518460C37BD4667
:101F30005DF8047B704780B584B000AF786039608D
:101F40004FF48E717868FFF7F7FE3B689B683A683C
:101F5000928A92B213441B78FB733B689B8A9BB2B4
:101F600001339AB23B689A82FB7B19467868FFF787
:101F700054FF00BF1037BD4680BD90B583B000AFA1
:101F8000786039603B68DB7D002B08D14FF48471A9
:101F90007868FFF7D1FE7868FFF731FF16E04FF45D
:101FA00084717868FFF7C8FE3B68DB683A68527E48
:101FB000D2B29C187868FFF722FF034623703B6873
:101FC0005B7EDBB20133DAB23B685A760C37BD4632
:101FD00090BD80B588B000AFF8600B467A60FB72A8
:101FE00001233B74FB7A3B767B687B61FB685B6813
:101FF000FA68116807F110021046984700BF2037B1
:10200000BD4680BD80B586B000AF78600B46FB70E2
:1020100000233B72FB783B747B689B68FB607B68AA
:1020200000229A757B685B687A68116807F108027C
:102030001046984700BF1837BD4680BD80B588B0B0
:1020400000AF786039604FF400717868FFF7A0FE48
:102050000346002B38D04FF492717868FFF783FE67
:102060000346002B30D04FF492717868FFF764FE7E
:102070004FF401717868FFF7A0FE3B689B7E83F008
:102080000103DBB2002B03D004217868FFF7D5FEF3
:1020900002233B727868FFF79FFE03467B613B6833
:1020A000DB7D3B743B68DB68FB603B680022DA75D4
:1020B0003B6800221A763B685B683A68116807F152
:1020C00008021046984754E004217868FFF760FE44
:1020D0000346002B4DD04FF484717868FFF743FE20
:1020E0000346002B45D039687868FFF746FF3B6808
:1020F000DA7D3B685B7EDBB29A423AD13B681B7E5D
:10210000002B1AD03B68DB68FB613B685B7EFB768B
:102110003B681A7E3B68DA753B681A693B68DA608F
:102120003B6800221A763B6800225A76FB7EFA69E9
:1021300019463868FFF74DFF1BE03B689B7E83F034
:102140000103DBB2002B03D004217868FFF775FE92
:102150004FF401717868FFF730FE3B680022DA75B2
:102160003B685B7ED9B23B68DB681A463868FFF78C
:1021700030FF4FF48E717868FFF7F5FD0346002BB2
:102180001BD03B689B8A9AB23B689B7D9BB29A426C
:1021900004D239687868FFF7CEFE0EE04FF48E71F6
:1021A0007868FFF7C9FD3B689B7D002B05D03B6835
:1021B0009B7D19463868FFF725FF4FF4A2717868B8
:1021C000FFF7D1FD0346002B1CD04FF4A2717868B5
:1021D000FFF7B2FD3B689B7E002B03D0002178689F
:1021E000FFF72BFE3B68DB7D002B0BD03B6800220A
:1021F000DA753B685B7ED9B23B68DB681A463868A3
:10220000FFF7E7FE00BF2037BD4680BD80B588B030
:1022100000AF786039604FF492717868FFF735FE4F
:102220000346002B23D04FF492717868FFF716FE17
:1022300002233B727868FFF751FE03467B617868A2
:10224000FFF76CFE0346DBB23B743B68DB68FB6068
:102250003B680022DA753B6800221A763B685B68AF
:102260003A68116807F10802104698473DE04FF4BC
:1022700088717868FFF709FE0346002B35D04FF4CC
:1022800088717868FFF7EAFD7868FFF747FE034634
:10229000FB773B68DB7DFA7F9A4226D13B681B7E49
:1022A000002B18D03B68DB68BB6120217868FFF702
:1022B00001FE3B681A7E3B68DA753B681A693B6829
:1022C000DA603B6800221A76FB7FBA6919463868E3
:1022D000FFF77FFE09E03B680022DA753B68DA68A9
:1022E000FB7F19463868FFF774FE4FF4A2717868D7
:1022F000FFF7CBFD0346002B16D04FF4A271786890
:10230000FFF7ACFD3B68DB7D002B0DD03B68002266
:10231000DA757868FFF702FE0346D9B23B68DB68DE
:102320001A463868FFF755FE4FF490717868FFF74A
:10233000ACFD0346002B11D04FF490717868FFF785
:102340008DFD3B689B7D002B08D07868FFF7D9FD99
:102350000346DBB219463868FFF754FE00BF20374A
:10236000BD4680BD80B500AF074B1B7F002B04D05E
:1023700005490648FFF74AFF03E003490348FFF712
:102380005DFE00BF80BD00BFDC22002000200040B9
:1023900080B483B000AF78604FF0A04318460C378C
:1023A000BD465DF8047B704780B584B000AF7860AF
:1023B0000B46FB703B1D1846FFF7EAFFF8607A6892
:1023C0007968FB6801F5E07153F8213023F440315E
:1023D000FB6802F5E07243F822107A687968FB68BE
:1023E00001F5E07153F82130F97809041943FB68CD
:1023F00002F5E07243F8221000BF1037BD4680BDE1
:1024000080B584B000AF0346FB710023FB6000235E
:10241000BB60AE4B1B78002B04D0AC4B00221A7073
:10242000FEF71CF9FB79172B00F2B08101A252F8DC
:1024300023F000BF95240200A1240200A124020081
:102440000325020065250200B125020011260200C5
:102450002F2602003D2602005B2602007F26020096
:102460009D260200C1260200E1260200E1260200AC
:10247000E1260200E1260200E126020039270200DF
:102480004527020057270200692702008127020022
:1024900081270200FEF7E2F88D4AFB79137076E19E
:1024A0000020FEF793F80346002B0CD00020FEF727
:1024B000C3F8FB79022B02D14FF4E16301E04FF442
:1024C0007A63BB600AE00020FEF7A4F8FB79022BD8
:1024D00001D1C82301E04FF4C873BB607C4AFB798B
:1024E00013707C48BB687C4AA2FB03235B097B4AD0
:1024F000126802FB03F300221946FDF7B9FEF860EB
:1025000045E10020FEF762F80346002B0CD00020C6
:10251000FEF792F8FB79032B02D14FF4487301E0E8
:102520004FF47A63BB600AE00020FEF773F8FB7992
:10253000032B01D1C82301E04FF4C873BB60644A88
:10254000FB7913706348BB68634AA2FB03235B09F2
:10255000624A126802FB03F300221946FDF788FE67
:10256000F86014E10020FEF731F80346002B06D096
:102570000020FEF761F84FF47A63BB6005E00020AD
:10258000FEF748F84FF4C873BB60514AFB791370EB
:102590005048BB68504AA2FB03235B094F4A1268AC
:1025A00002FB03F300221946FDF762FEF860EEE03D
:1025B0000020FEF70BF80346002B0BD00020FEF79F
:1025C0003BF8FB79052B01D1C82301E04FF47A6376
:1025D000BB600AE00020FEF71DF8FB79052B01D156
:1025E000C82301E04FF4C873BB60394AFB7913700C
:1025F0003848BB68384AA2FB03235B09374A126894
:1026000002FB03F300221946FDF732FEF860BEE03C
:102610000020FEF749F82E4AFB7913702D482F4B06
:102620001B6800221946FDF723FEF860AFE000208A
:10263000FDF7F0FF264AFB791370A8E0234B012237
:102640001A700120FEF730F82248244B1B68002244
:102650001946FDF70DFEF86099E01C4B01221A7037
:102660000120FEF721F81B481C4B1A6813469B00FB
:10267000134400221946FDF7FBFDF86087E0134B79
:1026800001221A700120FEF70FF81248134B1B6845
:1026900000221946FDF7ECFDF86078E00B4B0122B3
:1026A0001A700120FEF700F80A480C4B1A6813460E
:1026B0009B00134400221946FDF7DAFDF86066E03E
:1026C000FDF7DFFF024AFB79137060E0FD22002076
:1026D000FC220020082300201F85EB51002300204E
:1026E0002D4B1846FDF7F8FDF860FB79C3F1110397
:1026F000BB60BB68002B1BD0FB68002B18D1BB68EC
:10270000012B11D92448BB68C82202FB03F3234ADA
:10271000A2FB03235B09224A126802FB03F3002297
:102720001946FDF7A5FDF8600220FDF773FF2EE0C6
:102730000220FDF781FF2AE0FDF790FF194AFB799F
:10274000137024E0FDF78AFF0020FDF763FF154AB0
:10275000FB7913701BE0FDF781FF0120FDF75AFFA5
:10276000104AFB79137012E0FDF778FF0020FDF7A7
:1027700051FF0120FDF74EFF0A4AFB79137006E076
:10278000FDF77FFF074AFB79137000E000BFFB688D
:1027900018461037BD4680BD282300201F85EB5109
:1027A00000230020FC22002080B584B000AF034647
:1027B000FB710023FB60084B1B6803F00103002B37
:1027C00004D0FB791846FFF71BFEF860FB6818463B
:1027D0001037BD4680BD00BF0423002080B485B003
:1027E00000AF78600B46FB701346BB700023FB60A4
:1027F0007B68032B35D8BB78012B09D1FB78012BE3
:1028000004D17B68DBB20E33DBB200E00023BB7087
:10281000FB78012B04D0022B0BD0002B13D01CE033
:1028200014497A6813465B0013440B44BA781A7053
:1028300019E010497A6813465B0013440B440133D6
:10284000BA781A700FE00B497A6813465B0013449C
:102850000B440233BA781A7005E00723FB6000BF0F
:1028600001E00723FB60FB6818461437BD465DF89E
:10287000047B70474823002080B582B000AF7860A9
:102880007868FDF723FF034603211846FFF78CFD08
:10289000002318460837BD4680BD80B582B000AF22
:1028A000012200210020FFF799FF78607B68002B50
:1028B00004D07B68072B01D07B681CE00722022133
:1028C0000120FFF78BFF78607B68002B04D07B68CA
:1028D000072B01D07B680EE0042202210020FFF7C5
:1028E0007DFF78607B68002B04D07B68072B01D0CC
:1028F0007B6800E0002318460837BD4680BD80B5E0
:1029000082B000AF012202210020FFF767FF78604C
:102910007B68002B04D07B68072B01D07B681CE010
:10292000072202210120FFF759FF78607B68002B06
:1029300004D07B68072B01D07B680EE00A220021BF
:102940000020FFF74BFF78607B68002B04D07B688A
:10295000072B01D07B6800E0002318460837BD46EE
:1029600080BD80B582B000AF0020FFF785FF7860A2
:102970007B68002B04D07B68062B01D07B680CE0C1
:102980000120FFF779FF78607B68002B04D07B681B
:10299000062B01D07B6800E0002318460837BD46AF
:1029A00080BD000080B584B000AF78607B681B8874
:1029B000102B02D0112B18D02FE01A4B1B68002BC4
:1029C0000DD1FFF76AFFF860FB68002B07D0164BAC
:1029D0001B68002B03D0144B1B68F8689847114BF9
:1029E0001B6801330F4A136017E00E4B1B68013B55
:1029F0000C4A13600B4B1B68002B0DD1FFF77FFFB8
:102A0000F860FB68002B07D0074B1B68002B03D036
:102A1000054B1B68F868984700BF00BF1037BD46DC
:102A200080BD00BF582300205423002076DF70476C
:102A300000BF18467ADF704700BF18467CDF70473A
:102A400000BF18467FDF704700BF1846A8DF7047F9
:102A500000BF1846A9DF704700BF1846ADDF7047BA
:102A600000BF184667DF704700BF184632DF704767
:102A700000BF18463EDF704700BF184680B500AF64
:102A80005B4A5C495C4801F09FF95C4B00221A608C
:102A900038E0584BB3F9003007EE903AB8EEE77AD9
:102AA000574BD3ED007A37EE277AF0EE006AC7EE87
:102AB000267A544BC3ED007A4E4BB3F9003007EE43
:102AC000903AF8EEE77A4E4BC3ED007A4B4B1B6819
:102AD0004C4A12684C499B000B441A60474B1B68D8
:102AE000494A9B00134493ED007A484BD3ED007A9A
:102AF00077EE277A454BC3ED007A404B1B680133D4
:102B00003E4A13603D4B1B68312BC2DD3F4B93EDBA
:102B1000007ADFED3F6AC7EE267A3C4BC3ED007AC0
:102B20003A4BD3ED007A9FED3B7AF4EEC77AF1EEA3
:102B300010FA03D8384B1B68002B0DD0334BD3ED64
:102B4000007A9FED367AF4EEC77AF1EE10FA0FDBD9
:102B5000334B1B68002B0BD1324B1B680133314ABE
:102B600013602D4B01221A602D4B01221A6020E0C8
:102B7000264BD3ED007A9FED277AF4EEC77AF1EE7B
:102B800010FA03D8244B1B68002B0DD01F4BD3ED3C
:102B9000007A9FED227AF4EEC77AF1EE10FA08DBA4
:102BA0001F4B1B68002B04D11F4B1B6801331E4AAF
:102BB0001360164BD3ED007A9FED167AF4EEC77AC8
:102BC000F1EE10FA03DB144B00221A600DE00F4BFC
:102BD000D3ED007A9FED117AF4EEC77AF1EE10FA98
:102BE00000D902E00E4B00221A6000BF80BD00BF7A
:102BF000642600206C260020542600205826002041
:102C0000A423002060260020702600205C260020DF
:102C10000000484200007AC59823002000007A4551
:102C20009C230020A02300206826002080B582B0CD
:102C300000AF7860FFF722FF054B1B68054A136061
:102C40000449054800F002FE00BF0837BD4680BDBC
:102C5000A0230020A82300205C23002080B582B0A0
:102C600000AF00230B4A05210020FDF777FA7860BA
:102C70007B683B603B68002B02D03868FCF772FC35
:102C8000054A01210548FDF7BFFA00BF0837BD46D8
:102C900080BD00BFAC2300202D2C0200606002002C
:102CA00080B500AF044B00224FF400411846FDF7F9
:102CB000DFFA00BF80BD00BF7823002080B586B05A
:102CC00000AF3B78012262F303033B703B780122A3
:102CD00062F307133B70194803F0A7F903469AB251
:102CE0003B4616491846FFF7A9FE78617B693B61B0
:102CF0003B69002B02D03869FCF734FC3B1D0822ED
:102D000000211846FCF724FC1023BB803C23FB80E9
:102D100000233B814FF4C8737B813B1D1846FFF7AE
:102D200089FE78617B69FB60FB68002B02D0F86844
:102D3000FCF718FC00BF1837BD4680BD6460020078
:102D400080B500AF024800F03FFD00BF80BD00BF6E
:102D50005C23002080B584B000AF78607B681B786E
:102D6000002B0ED1094B1B883B211846FFF75EFE56
:102D7000F860FB68BB60BB68002B02D0B868FCF74A
:102D8000F1FB00BF1037BD4680BD00BF8821002089
:102D900080B582B000AF78607868FCF7E3FB00BFD5
:102DA0000837BD4680BD000080B58AB000AF3B1D2E
:102DB0001C2200211846FCF7CBFB00237B604FF45C
:102DC0002033BB604FF47023FB6003233B7400236C
:102DD0007B8200233B750A4BBB610A4BFB613B1DA9
:102DE000184602F03DFA78627B6A3B623B6A002B30
:102DF00002D0386AFCF7B6FB00BF2837BD4680BD5D
:102E0000552D0200912D020080B584B000AF002046
:102E1000FFF7CAFCF860FB68BB60BB68002B02D000
:102E2000B868FCF79FFBFFF79CFDF860FB687B60D0
:102E30007B68002B02D07868FCF794FBFFF716FE46
:102E4000F860FB683B603B68002B02D03868FCF7F9
:102E500089FB00BF1037BD4680BD80B584B000AF90
:102E60000346FB71FB79002B0FD0032B00D010E041
:102E70000220FFF799FCF860FB68BB60BB68002B81
:102E800006D0B868FCF76EFB02E0FFF7BDFF00E07C
:102E900000BF00BF1037BD4680BD000090B595B0A3
:102EA00000AF78607B681B88023B542B00F268817E
:102EB00001A252F823F000BFD73002008131020096
:102EC0008131020081310200813102008131020032
:102ED0008131020081310200813102008131020022
:102EE0008131020081310200813102008131020012
:102EF0000D3002002F3002008131020051300200FB
:102F000081310200813102008131020081310200F1
:102F100081310200813102008131020081310200E1
:102F200081310200813102008131020081310200D1
:102F300081310200813102008131020081310200C1
:102F400081310200813102008131020081310200B1
:102F500081310200813102008131020081310200A1
:102F60008131020081310200813102008131020091
:102F70008131020081310200813102008131020081
:102F80008131020081310200813102008131020071
:102F9000813102008131020081310200973002004C
:102FA0008131020081310200813102008131020051
:102FB0008131020081310200813102008131020041
:102FC0008131020081310200813102008131020031
:102FD0008131020081310200813102008131020021
:102FE0008131020081310200813102008131020011
:102FF00081310200F7300200753002008131020099
:103000008131020061310200B73002000720FFF772
:10301000CBFBF864FB6CBB64BB6C002B02D0B86CC0
:10302000FCF7A0FA7B689A885F4B1A80B7E0002013
:10303000FFF7BAFBF864FB6C7B647B6C002B02D05F
:10304000786CFCF78FFA584B4FF6FF721A80A6E0A7
:10305000554B1888002300228521FFF7F3FCF86404
:10306000FB6C3B643B6C002B00F08C80386CFCF7F5
:1030700079FA87E04C4B1888002300220021FFF7E3
:10308000E9FCF864FB6CFB63FB6B002B7CD0F86BFA
:10309000FCF768FA78E07B689B8813211846FFF7F5
:1030A000C5FCF864FB6CBB63BB6B002B6ED0B86BCC
:1030B000FCF758FA6AE07B689B8813211846FFF7F3
:1030C000B5FCF864FB6C7B637B6B002B60D0786B8A
:1030D000FCF748FA5CE07B689B8800211846FFF704
:1030E000C1FCF864FB6C3B633B6B002B52D0386B2C
:1030F000FCF738FA4EE07B6807F1180406331868CD
:1031000059689A68DB680FC43B7E002B44D097F85F
:103110002030042B07D097F82030062B03D097F8E7
:103120002030052B38D13B7E022B02D102233B728B
:1031300001E001233B724FF4C173BB817B689B8824
:1031400007F1080211461846FFF780FCF864FB6C93
:10315000FB62FB6A002B1FD0F86AFCF703FA1BE046
:103160007B689B8817211846FFF778FCF864FB6C96
:10317000BB62BB6A002B11D0B86AFCF7F3F90DE013
:1031800000BF0CE000BF0AE000BF08E000BF06E09F
:1031900000BF04E000BF02E000BF00E000BF00BFCE
:1031A0005437BD4690BD00BF8821002080B582B055
:1031B00000AF7860786802F089F97968074800F014
:1031C0005FF97868FFF76AFE786801F0A5FF786814
:1031D000FFF7E8FB00BF0837BD4680BD5C23002039
:1031E00080B58EB000AF214A07F11C03106818604B
:1031F00007F11C00002350221D4902F043FE7863B2
:103200007B6B3B633B6B002B02D0386BFCF7AAF95E
:103210003B461A460121002002F0BAFEF862FB6A22
:10322000BB62BB6A002B02D0B86AFCF79BF917237C
:103230003B823B46184602F0D5FEF862FB6A7B6291
:103240007B6A002B02D0786AFCF78CF9094802F0FF
:103250006DFEF862FB6A3B623B6A002B02D0386A63
:10326000FCF780F900BF3837BD4680BD6C600200B6
:1032700024240020AD31020080B5AAB002AF07F1CE
:103280005C033C2200211846FCF762F9022387F810
:103290005C30002387F85E30052387F85F30012318
:1032A000A7F86C30184B3B6707F120033C22002144
:1032B0001846FCF74DF93B46202200211846FCF742
:1032C00047F90123FB7040233B61B4237B613A46FD
:1032D00007F1200107F15C00002300930B4B01F084
:1032E00035FDC7F89C00D7F89C30C7F89830D7F860
:1032F0009830002B03D0D7F89800FCF733F900BFC3
:10330000A037BD4680BD00BF8C2100205B2E02008F
:1033100080B582B000AFFFF7ADFB78607B683B60A3
:103320003B68002B02D03868FCF71CF900BF083757
:10333000BD4680BD80B586B000AF3B4600221A6016
:103340005A609A60DA600B233B600D237B604FF07C
:10335000CC73BB6002233B7339460023002209482B
:10336000FEF71EF978617B693B613B69002B02D057
:103370003869FCF7F7F80348FEF78CF900BF1837F7
:10338000BD4680BD7060020090B589B002AF07F104
:10339000080484E8030011461A460B46FB711346E5
:1033A000BB71BA1DF97907F1080097F83030009326
:1033B0000123FEF767FB78617B693B613B69002B6A
:1033C00002D03869FCF7CEF87B69002B01D07B690D
:1033D00009E097F82C30F97907F10800BA6AFEF78E
:1033E00079FB78617B6918461C37BD4690BD0000AB
:1033F00080B584B000AF0023184A05210020FCF7F7
:10340000ADFEF860FB68BB60BB68002B02D0B868FB
:10341000FCF7A8F8FFF722FCFFF7E2FEFFF74EFCEF
:10342000FFF78EFCFFF728FFFFF7BEFCFFF738FC25
:10343000032001F08BFD78607B683B603B68002BCC
:1034400002D03868FCF78EF8FFF774FF00F02AFA14
:1034500000F096FAFFF75CFFFCE700BF7424002041
:10346000A0DF704700BF1846A2DF704700BF1846B4
:10347000A6DF704700BF184663DF704700BF1846DD
:1034800080B483B000AF786039603B681B88102B34
:1034900002D0112B05D009E03B689A887B681A801E
:1034A00004E07B684FF6FF721A8000BF00BF0C3744
:1034B000BD465DF8047B704790B59BB000AF786067
:1034C0005F4B07F14804186859689A68DB680FC4B5
:1034D0004AF6C143A7F8583007F158039A1C07F180
:1034E000480311461846FFF7C7FF78667B6E3B66B8
:1034F0003B6E002B02D0386EFCF734F807F12C033A
:103500001C2200211846FCF723F897F82C3043F0D2
:10351000020387F82C3097F82C3043F0080387F823
:103520002C3007F12803032200211846FCF710F87D
:1035300097F82830012262F3030387F8283097F8C0
:103540002830012262F3071387F8283097F82930D2
:10355000012262F3030387F8293097F8293001220A
:1035600062F3071387F8293097F82A30012262F3B3
:10357000420387F82A3007F128033B6497F82C3080
:1035800043F0100387F82C3007F1240303220021B5
:103590001846FBF7DDFF97F82630012262F342035D
:1035A00087F8263097F82430012262F3030387F866
:1035B000243097F82430012262F3071387F824306F
:1035C00097F82530012262F3030387F8253097F836
:1035D0002530012262F3071387F8253007F1100325
:1035E000142200211846FBF7B3FF07F158033B6193
:1035F00007F124037B610623BB8306233B8307F18A
:10360000080300221A609A8007F108033B627B6876
:1036100058887B68043307F1100207F12C01FFF78B
:1036200023FF78667B6EFB65FB6D002B02D0F86D87
:10363000FBF798FF002318466C37BD4690BD00BFCE
:103640007860020090B59BB000AF78605D4B07F1E9
:103650004804186859689A68DB680FC441F2393326
:10366000A7F8583007F158039A1C07F14803114690
:103670001846FFF701FF78667B6E3B663B6E002BBA
:1036800002D0386EFBF76EFF07F12C031C220021DD
:103690001846FBF75DFF97F82C3043F0020387F8DC
:1036A0002C3097F82C3043F0080387F82C3007F1C2
:1036B0002803032200211846FBF74AFF97F8283019
:1036C000012262F3030387F8283097F8283001229B
:1036D00062F3071387F8283097F82930012262F344
:1036E000030387F8293097F82930012262F3071382
:1036F00087F8293097F82A30012262F3420387F8CD
:103700002A3007F128033B6497F82C3043F010036C
:1037100087F82C3007F12403032200211846FBF719
:1037200017FF97F82630012262F3420387F826300C
:1037300097F82430012262F3030387F8243097F8C6
:103740002430012262F3071387F8243097F82530DC
:10375000012262F3030387F8253097F82530012210
:1037600062F3071387F8253007F1100314220021B4
:103770001846FBF7EDFE07F158033B6107F1240300
:103780007B610423BB8304233B830023FB6007F19D
:103790000C033B627B6858887B680C3307F110028E
:1037A00007F12C01FFF760FE78667B6EFB65FB6D11
:1037B000002B02D0F86DFBF7D5FE002318466C37BE
:1037C000BD4690BD7860020090B58BB000AF7860C8
:1037D0001D4B07F10804186859689A68DB680FC424
:1037E0004EF202133B8307F118039A1C07F10803FA
:1037F00011461846FFF740FE78627B6A3B623B6ADF
:10380000002B02D0386AFBF7ADFE7B684FF6FF72E3
:103810001A807B689A1C07F1180319460120FFF7EC
:103820001FFE78627B6AFB61FB69002B02D0F8699E
:10383000FBF798FE7868FFF73FFE7868FFF702FF16
:1038400000BF2C37BD4690BD7860020080B588B0BF
:1038500000AF786039607B681B884FF6FF72934237
:103860001CD00123FB8307F10C0310220021184612
:10387000FBF76EFE7B689B88BB810123BB73002333
:103880003B8207F11E037B613B68BB617B681B8841
:1038900007F10C0211461846FFF7EAFD00BF20377A
:1038A000BD4680BD80B586B002AF324B01221A7092
:1038B000304B02225A802F4B4FF4D0729A802D4BFE
:1038C000C822DA802B4B00221A722A4B00225A722D
:1038D000284B01229A72274B4FF4FA629A81254BAA
:1038E0006822DA81234B4FF4C8721A82214B0022DE
:1038F0009A74204B0022DA741E4B00221A751D4B5D
:1039000040F6B832DA821B4B0D221A83194B06227D
:103910009A76194A3B4612881A803A460023009349
:1039200002236A211548FEF7ADF8F860FB68BB601A
:10393000BB68002B02D0B868FBF714FE12233B7063
:1039400004237B703A460023009302236A210B482C
:10395000FEF798F8F860FB687B607B68002B02D06C
:103960007868FBF7FFFD00F00BF800BF1037BD468D
:1039700080BD00BFEC24002088600200706002005F
:1039800080B586B002AF10233B7000237B70A84B3C
:103990001B78012B40F0A580A54BDB88642B09D058
:1039A000C82B0DD0322B11D17B7843F00303DBB24F
:1039B0007B700EE07B7843F00203DBB27B7008E0A3
:1039C0007B7843F00103DBB27B7002E07B787B7095
:1039D00000BF974B5B88042B06D0082B0AD0022B24
:1039E0000ED17B787B7011E07B7843F00803DBB26B
:1039F0007B700BE07B7843F00C03DBB27B7005E05F
:103A00007B7843F00403DBB27B7000BF884B9B885C
:103A1000D02B41D0D02B0BDC0D2B25D00D2B02DC75
:103A2000002B1ED032E01A2B24D0342B28D02DE0CE
:103A300040F27C62934241D040F27C62934207DCC8
:103A4000B3F5D07F2ED040F24132934230D01DE00A
:103A500040F60252934237D041F60422934239D0C5
:103A600014E07B787B703EE07B7843F01003DBB2A0
:103A70007B7038E07B7843F02003DBB27B7032E070
:103A80007B7843F03003DBB27B702CE07B7843F033
:103A90004003DBB27B7026E07B7843F05003DBB25F
:103AA0007B7020E07B7843F06003DBB27B701AE030
:103AB0007B7843F07003DBB27B7014E07B7863F0BB
:103AC0007F03DBB27B700EE07B7863F06F03DBB2C9
:103AD0007B7008E07B7863F05F03DBB27B7000BF34
:103AE00001E000237B703A460023009302236A2101
:103AF0005048FDF7C7FFF860FB68BB60BB68002B50
:103B000002D0B868FBF72EFD11233B7000237B70B9
:103B1000474B9B7A012B74D1454B9B89F52B11D0D8
:103B2000F52B02DC7D2B07D01BE0B3F5FA7F0CD020
:103B3000B3F57A7F0FD014E07B7843F00203DBB259
:103B40007B7014E07B787B7011E07B7843F004039A
:103B5000DBB27B700BE07B7843F00803DBB27B7059
:103B600005E07B7843F00C03DBB27B7000BF304B89
:103B7000DB89D02B2CD0D02B06DC1A2B16D0342B83
:103B80001AD00D2B0CD01DE040F2413293422BD0C5
:103B900040F27C6293422DD0B3F5D07F1ED011E06D
:103BA0007B7843F01003DBB27B702CE07B7843F032
:103BB0002003DBB27B7026E07B7843F03003DBB27E
:103BC0007B7020E07B7843F04003DBB27B701AE02F
:103BD0007B7843F05003DBB27B7014E07B7843F0DA
:103BE0006003DBB27B700EE07B7843F07003DBB2E6
:103BF0007B7008E07B7863F07F03DBB27B7000BFF3
:103C000001E000237B703A460023009302236A21DF
:103C10000848FDF737FFF860FB687B607B68002B86
:103C200002D07868FBF79EFC00BF1037BD4680BD10
:103C3000EC2400207060020080B588B004AF10232F
:103C40003B7000237B701A490023029301230193E8
:103C5000FB1C009310236A2203C9FFF795FBF86051
:103C6000FB68BB60BB68002B02D0B868FBF77AFC2E
:103C70007B785AB2FB785BB203F00F035BB213435D
:103C80005BB2DBB27B703A460023009302236A21C9
:103C90000748FDF7F7FEF860FB687B607B68002B48
:103CA00002D07868FBF75EFC00BF1037BD4680BDD0
:103CB0007060020080B58AB004AF0346FB80102319
:103CC0003B7200237B723F4900230293012301933F
:103CD00007F10B03009310236A2203C9FFF754FB7B
:103CE00078617B693B613B69002B02D03869FBF747
:103CF00039FCFB8840F2413293421CD040F2413201
:103D0000934203DCB3F5D07F09D020E040F60252A5
:103D1000934228D041F60422934230D017E07A7AB9
:103D2000FB7A03F00F03DBB21343DBB243F0600313
:103D3000DBB27B722FE07A7AFB7A03F00F03DBB2FF
:103D40001343DBB243F07003DBB27B7223E07A7A79
:103D5000FB7A03F00F03DBB21343DBB263F07F03A4
:103D6000DBB27B7217E07A7AFB7A03F00F03DBB2E7
:103D70001343DBB263F06F03DBB27B720BE07A7A42
:103D8000FB7A03F00F03DBB21343DBB263F05F0394
:103D9000DBB27B7200BF07F108020023009302230D
:103DA0006A210848FDF76EFE78617B69FB60FB685D
:103DB000002B02D0F868FBF7D5FB00BF1837BD46D3
:103DC00080BD00BF7060020080B58CB004AFF860A9
:103DD000B9607A600023FB75274B9B881846FFF774
:103DE00069FF2649002302930123019307F117037A
:103DF00000931E236A2203C9FFF7C6FAF861FB7D10
:103E000003F00103002BECD01C490123029306238D
:103E1000019307F11003009328236A2203C9FFF7D7
:103E2000B3FAF861FB69BB61BB69002B02D0B869CA
:103E3000FBF798FBFFF700FF7B7C1B021AB23B7C71
:103E40001BB213431AB2FB681A80FB7C1B021AB226
:103E5000BB7C1BB213431AB2BB681A807B7D1B026A
:103E60001AB23B7D1BB213431AB27B681A8000BFA3
:103E70002037BD4680BD00BFEC24002070600200EA
:103E80006DDF704700BF184672DF704700BF1846ED
:103E900079DF704700BF18467DDF704700BF1846C6
:103EA00065DF704700BF184680B483B000AF03469B
:103EB0003960FB80FB88DAB23B681A703B680133DB
:103EC000FA88120A92B2D2B21A70022318460C373C
:103ED000BD465DF8047B704780B588B000AFF860E0
:103EE000B9601346FB80BB681B8803F10902FB889D
:103EF0009A4201D90C2352E007F114031846FFF748
:103F0000BFFFF861FB69002B01D0FB6947E0BB688C
:103F10001B881A46FB68134408221A70BB681B886A
:103F200001339AB2BB681A80BB681B881A46FB68CB
:103F300013441B221A70BB681B8801339AB2BB68FA
:103F40001A80BB681B881A46FB68981807F114038F
:103F500001330622194602F05DF8BB681B88063360
:103F60009AB2BB681A803B7D23F00103DBB2002BC1
:103F700007D1BB681B881A46FB68134400221A70DD
:103F800006E0BB681B881A46FB68134401221A70BE
:103F9000BB681B8801339AB2BB681A80002318469D
:103FA0002037BD4680BD80B588B000AFF860B960ED
:103FB0007A607B80FB681B78012B05D1FB685B78FE
:103FC000002B01D1072377E07B681B889A1C7B8834
:103FD0009A420DD8FB681B78012B0BD17B681B889C
:103FE0001A46FB685B7813449A1C7B889A4201D975
:103FF0000C2361E07B681B887A88D31A9BB2023B52
:10400000BB83BB8BFB827B681B880233BA6813447B
:1040100007F1160211461846FFF73EFFB861BB696B
:10402000002B01D0BB6947E0FB681B78022B06D14F
:10403000FB8ABA8B9A4202D30923FB7712E008234A
:10404000FB77FB681B78012B0AD1FB685B789BB27E
:10405000BA8B9A4204D3FB685B789BB2FB8201E087
:10406000BB8BFB82FB8AFE2B01D90C2324E07B68EF
:104070001B881A46BB681344FA8AD2B20132D2B204
:104080001A707B681B8801339AB27B681A807B6840
:104090001B881A46BB681344FA7F1A707B681B881A
:1040A00001339AB27B681A807B681A88FB8A1344B2
:1040B0009AB27B681A80002318462037BD4680BD1F
:1040C00080B586B000AFF860B9601346FB80BB686E
:1040D0001B881A1DFB889A4201D90C2338E007F18E
:1040E00012031846FFF7D4FE78617B69002B01D0DC
:1040F0007B692DE0BB681B881A46FB6813440322CA
:104100001A70BB681B8801339AB2BB681A80BB68FF
:104110001B881A46FB68134419221A70BB681B8857
:1041200001339AB2BB681A807A8ABB681B88194629
:10413000FB680B4419461046FFF7B6FE03461946C6
:10414000BB681A888BB213449AB2BB681A800023EA
:1041500018461837BD4680BD80B485B000AFB96041
:104160007A601A460346FB731346BB817B681B8843
:10417000DA1CBB899A4201D90C2327E07B681B8893
:104180001A46BB68134402221A707B681B880133ED
:104190009AB27B681A807B681B881A46BB681344F6
:1041A00001221A707B681B8801339AB27B681A80DF
:1041B0007B681B881A46BB681344FA7B1A707B68BD
:1041C0001B8801339AB27B681A8000231846143783
:1041D000BD465DF8047B704780B485B000AFB96020
:1041E0007A601A460346FB731346BB817B681B88C3
:1041F000DA1CBB899A4201D90C2327E07B681B8813
:104200001A46BB68134402221A707B681B8801336C
:104210009AB27B681A807B681B881A46BB68134475
:104220000A221A707B681B8801339AB27B681A8055
:104230007B681B881A46BB681344FA7B1A707B683C
:104240001B8801339AB27B681A8000231846143702
:10425000BD465DF8047B704780B58AB000AFF8605A
:104260007B600B46FB721346BB72002387F823303A
:104270003B6B1B883B8400237B6268E0FB685A68C9
:104280007B6A9B001A4407F110031068186007F15D
:10429000170107F1100300221846FFF701FEF8612D
:1042A000FB69002B01D0FB696EE0FB7DBA7A9A4274
:1042B0004AD197F82330002B01D0002300E00223DD
:1042C000FB763B6B1B881A46FB7D1A44FB7E1A4427
:1042D000BB8E9A4201DD0C2356E097F8233083F021
:1042E0000103DBB2002B15D03B6B1B8801339AB264
:1042F0003B6B1A803B6B1B881A467B681344FA7A27
:104300001A703B6B1B8801339AB23B6B1A800123F6
:1043100087F823303B6B1B881A467B681A4407F1E9
:10432000170107F110031846FFF7BAFDF861FB69A2
:10433000002B01D0FB6927E03B6B1A88FB7D9BB209
:1043400013449AB23B6B1A807B6A01337B62FB6831
:104350001B881A467B6A9A4290DC97F82330002B20
:1043600011D03B6B1A883B8CD31A9BB2013B3B8329
:104370003B8BFF2B01D90C2306E03B8C7A6813445E
:104380003A8BD2B21A70002318462837BD4680BD3A
:1043900080B588B002AFF8607B600B46FB721346B5
:1043A000BB72F97ABB8C01933B6A00937B68022253
:1043B000F868FFF751FF78617B69002B01D07B69BA
:1043C00010E0B97ABB8C01933B6A00937B681022A2
:1043D000F868FFF741FF78617B69002B01D07B69AA
:1043E00000E0002318461837BD4680BD80B483B076
:1043F00000AF78607B681B88052B0AD97B681B8817
:10440000B3F5486F07D97B681B884FF6FF7293425C
:1044100001D0072325E07B685B88052B0AD97B68E0
:104420005B88B3F5486F07D97B685B884FF6FF72EE
:10443000934201D0072314E07B681B884FF6FF727C
:1044400093420DD07B685B884FF6FF72934207D092
:104450007B681A887B685B889A4201D9072300E051
:10446000002318460C37BD465DF8047B704780B5C5
:1044700086B000AFF860B9607A607B807B681B888B
:104480009A1D7B889A4201D90C234BE0F868FFF70C
:10449000ADFF78617B69002B01D07B6942E07B68CE
:1044A0001B881A46BB68134405221A707B681B8858
:1044B00001339AB27B681A807B681B881A46BB68F6
:1044C000134412221A707B681B8801339AB27B68EE
:1044D0001A80FB681A887B681B881946BB680B44E6
:1044E00019461046FFF7E0FC034619467B681A8818
:1044F0008BB213449AB27B681A80FB685A887B6837
:104500001B881946BB680B4419461046FFF7CCFCC4
:10451000034619467B681A888BB213449AB27B68AB
:104520001A80002318461837BD4680BD80B586B076
:1045300000AFF860B9607A607B80FB689B880233CB
:104540007B617B681B881A467B6913449A1C7B88B5
:104550009A4201D90C2354E07B69FE2B01D90C232C
:104560004FE07B681B881A46BB6813447A69D2B255
:104570000132D2B21A707B681B8801339AB27B6811
:104580001A807B681B881A46BB681344FF221A7086
:104590007B681B8801339AB27B681A80FB681A8893
:1045A0007B681B881946BB680B4419461046FFF709
:1045B0007BFC034619467B681A888BB213449AB277
:1045C0007B681A80FB689B88002B19D0FB689B686E
:1045D000002B01D1072314E07B681B881A46BB68B7
:1045E0009818FB689968FB689B881A4601F012FDD1
:1045F0007B681A88FB689B8813449AB27B681A8090
:10460000002318461837BD4680BD80B588B000AF7E
:10461000F860B9607A607B80FB689B6A002B01D1EF
:1046200007236DE00023FB7763E0FB68996AFA7F5C
:1046300013465B0013449B000B44BB61BB699B8822
:1046400002337B617B69FE2B01D90C2358E07B6828
:104650001B881A46BB6813447A69D2B20132D2B2BF
:104660001A707B681B8801339AB27B681A807B685A
:104670001B881A46BB68134416221A707B681B8875
:1046800001339AB27B681A80BB691A887B681B88E1
:104690001946BB680B4419461046FFF705FC034654
:1046A00019467B681A888BB213449AB27B681A80C9
:1046B000BB699B88002B19D0BB699B68002B01D17B
:1046C00007231DE07B681B881A46BB689818BB69E6
:1046D0009968BB699B881A4601F09CFC7B681A8824
:1046E000BB699B8813449AB27B681A80FB7F0133B5
:1046F000FB77FB6893F82C30FA7F9A4295D300231E
:1047000018462037BD4680BD80B588B002AFF8603E
:10471000B9607A6000237B617B681B887B827B6841
:1047200000221A80FB6893F82D30002B0BD07B8A77
:104730001A467968B868FFF7CFFB78617B69002B70
:1047400001D07B69BAE0FB689B78002B0BD07B8A99
:104750001A467968B868FFF7B3FC78617B69002B6B
:1047600001D07B69AAE0FB68DB78002B0DD0FB68E9
:10477000DB7858B27B8A7A68B968FFF7EDFC78611C
:104780007B69002B01D07B6998E0FB685B68002B9C
:104790000ED0FB685B6893F900007B8A7A68B96881
:1047A000FFF71AFD78617B69002B01D07B6985E0FA
:1047B000FB681B89002B11D0FB6803F108007B8A82
:1047C00001937B680093BB6806220221FFF7E0FD9E
:1047D00078617B69002B01D07B696FE0FB681B8AE5
:1047E000002B11D0FB6803F110007B8A01937B68DA
:1047F0000093BB6807220321FFF7CAFD78617B693C
:10480000002B01D07B6959E0FB681B8B002B11D07A
:10481000FB6803F118007B8A01937B680093BB68F7
:1048200015221421FFF7B4FD78617B69002B01D0BC
:104830007B6943E0FB681B6A002B0CD0FB68186A9D
:104840007B8A7A68B968FFF712FE78617B69002B72
:1048500001D07B6932E0FB685B6A002B0CD0FB68FF
:10486000586A7B8A7A68B968FFF760FE78617B696D
:10487000002B01D07B6921E0FB6893F82C30002BE2
:104880000BD07B8A7A68B968F868FFF7BEFE78615A
:104890007B69002B01D07B6910E0FB681B78002B43
:1048A0000BD07B8A7A68B968F868FFF77CFB78617F
:1048B0007B69002B01D07B6900E07B6918461837C3
:1048C000BD4680BD80B483B000AF78607B68DB7884
:1048D00003F00403002B01D1072300E00023184656
:1048E0000C37BD465DF8047B704780B483B000AFE1
:1048F00078607B68DB78002B01D0072300E0002381
:1049000018460C37BD465DF8047B704780B596B0FD
:1049100000AF786039601F23A7F84A301F23A7F83B
:1049200048307B68002B1AD07868FFF7CBFFF8641B
:10493000FB6C002B01D0FB6C44E007F14A0207F14D
:10494000280319467868FFF7DFFEF864FB6C002B3C
:1049500001D0FB6C36E007F128037B6504E00023FF
:104960007B650023A7F84A303B68002B1AD03868D3
:10497000FFF7BBFFF864FB6C002B01D0FB6C21E060
:1049800007F1480207F1080319463868FFF7BCFE33
:10499000F864FB6C002B01D0FB6C13E007F10803FB
:1049A0003B6504E000233B650023A7F84830B7F8D7
:1049B0004A30D9B2B7F84830DBB23A6D786DFFF7BC
:1049C00063FA034618465837BD4680BD73DF70470B
:1049D00000BF184680B400AF034B1B781846BD4695
:1049E0005DF8047B704700BFDA25002080B485B0F5
:1049F00000AF78600023FB600AE07A68FB6813442C
:104A00001B78002B01D0012306E0FB680133FB601B
:104A1000FB68052BF1D9002318461437BD465DF815
:104A2000047B704780B483B000AF0346FB71FB7911
:104A30005A1C084B83FB02135910D317C91A0B4693
:104A40009B000B44D11ACBB218460C37BD465DF81B
:104A5000047B70476766666680B483B000AF786099
:104A60007B68DB7B012B03D17B689A88034B1A8020
:104A700000BF0C37BD465DF8047B7047CC25002095
:104A800080B584B000AF78600D4B00221A707B684F
:104A90009A880C4B1B889A420ED1012000F056FADE
:104AA000F860FB68002B07D0074B1B68002B03D076
:104AB000054B1B68F868984700BF1037BD4680BD9E
:104AC000D8250020CC250020D425002080B584B036
:104AD00000AF78607B681B7A002B15D10C4B1B78DC
:104AE0001846FFF79FFF0346184600F02FFAF860BC
:104AF000FB68002B09D0074B1B68002B05D0054B2A
:104B00001B68F868984700E000BF1037BD4680BDBD
:104B10000B250020D425002080B582B000AF3B1DBE
:104B20001846FBF78FFC7B68002B14BF0123002382
:104B3000DBB218460837BD4680BD000080B584B0A2
:104B400000AF0346FB711C48FFF750FF0346FB73A1
:104B5000FB79013B032B29D801A252F823F000BFB7
:104B6000714B0200834B0200954B0200A14B0200E7
:104B7000124B5B78002B04D0FB7B002B01D0012370
:104B800015E00E4B9B78002B04D0FB7B002B01D053
:104B900002230CE0094BDB78002B01D0032306E055
:104BA000064B1B79002B01D0042300E0002318469C
:104BB0001037BD4680BD00BF2D2500200C250020EC
:104BC00080B483B000AF78600A4B01221A707B6812
:104BD000094A5A607B6801221A707B6800229A8118
:104BE0007B6800225A81002318460C37BD465DF8C9
:104BF000047B70470A2500202C25002080B483B058
:104C000000AF78600C4B02221A707B680B4A5A6026
:104C10007B6801221A700A4BDB689AB27B689A8122
:104C2000074B9B689AB27B685A81002318460C3761
:104C3000BD465DF8047B70470A2500202C25002026
:104C40000C25002080B584B000AF78601A4B1B693A
:104C50009AB27B685A81184B5B699AB27B689A81D9
:104C6000154B1B78002B1FD0144B1B7883F00103CE
:104C7000DBB2002B18D0FFF7ADFE0346002B13D09C
:104C80007B6802221A720E4B0422DA7000210C4853
:104C9000FFF73CFEF860FB68002B01D0FB6807E0E3
:104CA000084B05221A7002E0064B03221A700023FB
:104CB00018461037BD4680BD0C250020D8250020A1
:104CC000342500200A25002080B584B000AF78602C
:104CD0001A4B9B699AB27B685A81184BDB699AB26E
:104CE0007B689A81154B1B78002B1FD0144B1B78C7
:104CF00083F00103DBB2002B18D0FFF76BFE0346F5
:104D0000002B13D07B6802221A720E4B0422DA7039
:104D100000210C48FFF7FAFDF860FB68002B01D07A
:104D2000FB6807E0084B06221A7002E0064B0422DB
:104D30001A70002318461037BD4680BD0C25002090
:104D4000D8250020342500200A250020B0B588B0E1
:104D500000AFF860B9607A603B60FB68002B02D05E
:104D60007B68002B01D10E23D2E06B4B01221A701D
:104D70006A4B00221A706A4A7B6814461D460FCDA2
:104D80000FC495E80F0084E80F00664A3B68136083
:104D9000654A3B6B1360654B4FF6FF721A80072222
:104DA00000216348FAF7D4FB3C2200216148FAF75E
